:100000006F00C04F13000000130000001300000039
:100010001300000013000000130000001300000094
:100020001300000013000000130000001300000084
:08003000130000007300100032
:100038006FF09FFC000000006F0080206F006020C0
:1000480000000000000000000000000000000000A8
:100058000000000000000000000000000000000098
:100068006F00C02B000000006F00A04800000000D7
:100078006F0020486F00E0476F00A0476F0060479F
:100088006F0020476F00E0466F00A0466F00604693
:100098006F0020466F00E0456F00A0456F00604587
:1000A8006F0020456F00E0446F00A0446F0060447B
:1000B8006F0020446F00E0436F00A0430000000081
:1000C8000000000000000000000000006F00604217
:1000D8006F0020426F00E0416F00A0416F00604157
:1000E8006F0020416F00E0406F00A0406F0060404B
:1000F8006F0020406F00E03F6F00A03F6F00603F3F
:100108006F00203F6F00E03E6F00A03E6F00603E32
:100118006F00203E6F00E03D6F00A03D6F00603D26
:1001280000000000000000000000000000000000C7
:080138000000000000000000BF
:10014000397101436EC619A0397141536AC866CA34
:1001500062CC5ECE19A0397101535AD056D252D416
:100160004ED64AD826DA22DC06DE3301614082828E
:1001700041114AC026C222C406C68282B24D410144
:10018000024D924C224CB24B4101024B924A224A00
:10019000B2494101024992442244B2404101828065
:1001A0003D432A876373C3029377F700BDEFADE544
:1001B000937606FF3D8ABA960CC34CC30CC74CC756
:1001C0004107E36BD7FE11E28280B306C3408A0683
:1001D0009702000096966780A6002307B700A30643
:1001E000B7002306B700A305B7002305B700A30493
:1001F000B7002304B700A303B7002303B700A3028B
:10020000B7002302B700A301B7002301B700A30082
:10021000B7002300B700828093F5F50F9396850011
:10022000D58D93960501D58D61B7939627009702DA
:10023000000096968682E78086FA9680C1171D8F09
:100240003E96E374C3F8A5B701A0B707EFBE37E742
:1002500000E0938707083CC701A0B7F700E023A0A0
:10026000070023820700A382070023830700A383DC
:10027000070023840700A384070023850700A385C4
:1002800007001377F50F2386E700135785001377D0
:10029000F70FA386E700135705011377F70F23879E
:1002A000E7006181A387A70013F7F50F2388E70014
:1002B00013D785001377F70FA388E70013D705013D
:1002C0001377F70F2389E700E181A389B70037E7A8
:1002D00000E0BD462306D74085662320D71005479A
:1002E00098C38280EFF2DFE861220545992E71659F
:1002F00013050520392337040020832504083725FA
:100300000000130545AF7523BD24AA8537250000DD
:10031000130545B0792B0325040881450D817D1512
:100320002D3F01A037250000130545AD4525B7F742
:1003300000E023820700A382070023830700A38332
:10034000070023840700A384070023850700A385F3
:100350000700938781818C4337250000130545AE44
:1003600085058CC3B92373002030B717024098432A
:10037000B706FFF841111367170098C3D843370633
:100380000200758FD8C39843B706F7FEFD16758F28
:1003900098C39843B706FCFFFD16758F98C3D843E2
:1003A000B70681FFFD16758FD8C337079F0098C722
:1003B00002C402C69843C166558F98C3B71602405F
:1003C000130700509C42F18F3EC6A24785073EC4EA
:1003D000B24781E7A247E397E7FEB71702409C4385
:1003E0001397E7006354070885473EC632478547A1
:1003F000631CF706B72702409843B706C1FFFD16F6
:100400001367070198C39843719B98C39843136778
:10041000270098C3B7170240D843D8C3D843D8C3DE
:10042000D84313670740D8C3D843758FD8C3D84380
:10043000B7061D00558FD8C39843B7060001558FE6
:1004400098C3984393166700E3DD06FED843B716BA
:100450000240719BD8C3D84313672700D8C32147F4
:10046000DC42B18BE39EE7FE4101828002C6BDBF44
:10047000B7160240DC42370700201146B18B130744
:1004800007086385C70021466389C702B7177A004A
:10049000938707201CC3B7170240DC43918393F670
:1004A000F700B707002093870700B69783C60700B9
:1004B0001C43B3D7D7001CC38280DC42D042C9831F
:1004C000BD8B9315F600890763CD0500B746024042
:1004D00083A60680C18A99CAB7167A009386062039
:1004E00011A8D4421396E600E35806FEB7163D0065
:1004F00093860690B387D70271BF01A097010020B1
:1005000093814138175100201301C1AF1715000026
:100510001305456A970500209385C5AE1386818132
:1005200063FAC5008322050023A05500110591053B
:10053000E3EAC5FE138581819385C1826377B500A7
:10054000232005001105E36DB5FE9302800873902A
:10055000023097020000938262AE93E21200739021
:100560005230EFF09FE0970200009382E2D7739041
:10057000123473002030B707002003A5478882801B
:100580009C4513F7070113F8F70001C7D8413368FA
:10059000E80083D5050013F7F50F39C318418146EC
:1005A000854E3D4F930F800293028004214E339677
:1005B000DE00B3F8C50063111603939826003313C9
:1005C0001F011343F3FF3377E300B318180133E738
:1005D000E800639FF70550C98506E39AC6FD18C178
:1005E0001307F00F6375B70454412146854E3D4F04
:1005F000930F800293028004414EB398CE0033F7EC
:1006000015016392E8021317260001173313EF0058
:100610001343F3FFB376D3003317E800D98E639DFD
:10062000F701232A15010506E319C6FD54C182808E
:10063000E39457FA10C94DB7E39757FE23281501E5
:10064000DDB7B7E700E0370705FAB8C723AEA180EA
:100650008280371702405C439146B18B6385D70097
:10066000A1466386D706B7177A00938707201CC177
:10067000371602405C4237070020130707019183B9
:10068000BD8BBA9783C607001C41B3D7D7005CC1A6
:100690005442A1829D8ABA9683C60600B3D6D7007B
:1006A00014C55442AD829D8A369703470700B3D7DD
:1006B000E7005CC558423983937637001387418041
:1006C000369703470700B3D7E7021CC982805C4313
:1006D0005443C983BD8B1396F6008907634D06000A
:1006E0003747024003270780418B19CB37177A0021
:1006F0001307072011A858439316E700E3D806FE16
:1007000037173D0013070790B387E7028DB799C5E8
:10071000371702401C4F5D8D08CF8280B71702400B
:10072000984F1345F5FF798D88CF8280EFF25FA453
:1007300083560501F577FD17F58F83D6650003D73E
:10074000C5007971D58F2318F5008356C500FD7754
:100750009387379FF58F83D645002A842EC6D58F81
:1007600083D68500D58F83D6A500D58F2316F500B7
:1007700083574501C207C18393F7F7CFD98F231A57
:10078000F5006808F935B747014093870780B245FF
:10079000631EF402A2576547B387E70298419306A8
:1007A00040060A07B3D7E70233D7D702B3F7D70219
:1007B0001207920793872703B3D7D702BD8BD98F30
:1007C000C207C1832314F4004561E9B29257E1B72F
:1007D00081C98357C5000967D98F2316F500828028
:1007E0000357C500F977FD17F98FC5BF93F5F51FBE
:1007F0002312B5008280035505006D8D3335A000AE
:100800008280EFF2FF962A8411650111854511055A
:10081000FD3D930700202312F100371501408D475D
:100820003EC44C00E147130505803EC6913B22C8FB
:1008300037440140B70708000C08130504803ECC7C
:1008400002CA231E0100DD358545130504804937A2
:10085000056189B2EFF23F90B7440140AE89328919
:10086000014493840480634424014A8539BA930582
:1008700000042685493765DDB38789008385070035
:1008800026850504C205C1819537F1BF1387818094
:100890001C439386C1823E95636BD500B7560020FA
:1008A0009386068063E5A60008C33E858280FD57D7
:1008B000EDBF39713EDA2ED232D436D63AD842DC88
:1008C00046DE9387C18022CC804326CA06CEAA8406
:1008D00009C41C4C99E3228515230C445410268628
:1008E000228536C6EF007016F2406244D244216180
:1008F0008280011126CA4AC806CE22CC4EC652C4F6
:10090000AA842E8901C51C4D91E3CD299C4C8044BD
:1009100099E32685E521971700009387E721631C5B
:10092000F402C0408357C400A18BB1C71C48A1C7C3
:10093000FD59294A1C4483450900FD17B1E91CC42F
:1009400063DE07062286A94526857120FD576308C8
:10095000F502294535A0971700009387E71F631418
:10096000F4008044C1B7971700009387E71AE31B90
:10097000F4FAC04445BFA2852685312A55D97D5554
:10098000F2406244D2444249B249224A056182801F
:100990001CC4050963D70700184C63CBE7006389C3
:1009A00045011C401387170018C02380B70059B7B2
:1009B000228626850D20E31F35F7D1B71C4013870B
:1009C000170018C029472380E70061B79387C180CB
:1009D000AA85884339BF011122CC26CA4AC806CE4F
:1009E0004EC6AA842E89328401C51C4D91E339215B
:1009F00097170000938747146319F406C0401C4CF6
:100A00001CC48357C400A18BC9C31C48BDCF1C485C
:100A100008409379F90F1379F90F1D8D5C486346EF
:100A2000F500A2852685652C2DE51C440505FD17DE
:100A30001CC41C401387170018C0238037015C4872
:100A40006389A7008357C400858B81CBA9476316B0
:100A5000F900A285268561240DEDF24062444A85A5
:100A6000D2444249B24905618280971700009387BA
:100A7000A70E6314F400804459B7971700009387BA
:100A8000A709E31EF4F6C0449DBFA2852685212058
:100A90003DDD7D59D9B741119387C18026C284437A
:100AA00022C44AC006C62A892E8489C49C4C99E374
:100AB0002685A9269717000093870708631CF40270
:100AC000C0400317C40093170701C18393F6870042
:100AD000B5EE93F607019DEEA5472320F9001367B5
:100AE00007042316E4007D55B24022449244024993
:100AF0004101828097170000938707066314F40072
:100B00008044C1B79717000093870701E31BF4FAED
:100B1000C04445BF918B8DC74C5889C99307440485
:100B20006384F5004A85352B232A04028357C400C9
:100B30002322040093F7B7FD2316F4001C481CC0C1
:100B40008357C40093E787002316F4001C4881EF05
:100B50008357C4001307002093F707286385E70035
:100B6000A2854A8585218357C40013F7170005C75E
:100B70005C4823240400B307F0401CCC1C4801450A
:100B8000A5F78317C40013F7070839DF93E70704B5
:100B90002316F40089BF898B014791E3584818C494
:100BA000F1BF83D7C500011122CC26CA06CE4AC8A0
:100BB0004EC613F78700AA842E8471EFD841634D87
:100BC000E000B841634AE0000145F2406244D2448B
:100BD0004249B2490561828058547DD703A9040077
:100BE0009396370123A0040063DD060670488357FF
:100BF000C400918B99C75C401D8E5C5899C33C40E2
:100C00001D8E5C540C50814626858297FD570357F4
:100C1000C400631DF5009440F54763E8D706B707A5
:100C200040208507B3D7D700858BA5C31C48232256
:100C300004001CC09317370163D80700FD576314E5
:100C4000F5009C4091E368C84C5823A02401ADDD19
:100C5000930744046384F50026852121232A040296
:100C6000A5B70C500146854626850297FD572A8672
:100C7000E31FF5F69C40A5DF75476385E7005947FC
:100C80006394E70423A0240181B7136707042316A4
:100C9000E4007D551DBF83A90501E38709F203A97F
:100CA00005008D8B23A0350133093941014791E3BC
:100CB000D84918C4E35A20F11C540C50CA864E86F9
:100CC000268582976349A0008357C40093E70704F1
:100CD0002316F4007DBFAA993309A940E1BF9C49BE
:100CE000B9CF011122CC06CE2A8411C51C4D81E753
:100CF0002EC62922B245971700009387E7E3639B2E
:100D0000F5004C408397C50095C722856244F240A8
:100D1000056141BD97170000938707E46394F500D0
:100D20000C44CDB797170000938707DFE39CF5FCD1
:100D30004C44C9BFF24062440145056182800145CF
:100D40008280411122C406C62A842316B5002317C7
:100D5000C5002320050023220500232405002322AB
:100D6000050623280500232A0500232C050021461B
:100D700081451305C505EFF0AFC2971700009387B3
:100D800067B45CD0971700009387C7B61CD4971739
:100D90000000938707BB5CD4971700009387C7BDFB
:100DA00000D01CD8B2402244410182809705000047
:100DB000938525F3A9A2411126C2130680069384C8
:100DC000F5FFB384C4024AC02E8922C406C69385A7
:100DD0004407252E2A8401CD232005002322250146
:100DE000310508C4138684068145EFF06FBB228568
:100DF000B240224492440249410182801C4DADE33D
:100E0000411106C622C497070000938767FA1CD5D4
:100E1000938701819C43232405042326050423286A
:100E200005046314F50085471CCD2A841D2848C09D
:100E30002285052808C422852D2048C44840014643
:100E40009145013708440546A545E53D4844094616
:100E5000C945C53D85471CCCB24022444101828032
:100E6000828041119387018126C284434AC006C60D
:100E70009C4C22C42A8999E32685493793848404AB
:100E80008044DC40FD1763D607009C40B9CF844006
:100E9000C5BF0317C40039E7C177850723220406BD
:100EA0002320040023220400232404005CC42328FC
:100EB0000400232A0400232C040021468145130545
:100EC000C405EFF0EFAD232A0402232C04022324EF
:100ED0000404232604042285B24022449244024999
:100EE000410182801304840671BF91454A85E13532
:100EF00088C051FDB1472320F9000144E9BF797151
:100F000022D44AD052CC56CA5AC85EC606D626D279
:100F10004ECE2A8AAE8A130485040149054BFD5B37
:100F200009ECB25022544A8592540259F249624A5D
:100F3000D24A424BB24B456182800444832944002B
:100F4000FD1963D409000040E1BF83D7C400637B6F
:100F5000FB008397E40063877701A6855285829A18
:100F60003369A90093848406E1BF1971A6DAAE84BF
:100F70008395E500A2DC86DE328463DC050083D73E
:100F8000C40023A0060093F7070885E793070040F5
:100F90001DA0300836C6EF00B023B246E34105FE7F
:100FA0007247BD67F98F7977BA9793B717009CC2DC
:100FB000F1BF930700041CC0F6506654D654014597
:100FC0000961828083D7C500011122CC06CE26CAD2
:100FD0004AC8898B2E8489CF930774041CC01CC80F
:100FE00085475CC8F2406244D24442490561828030
:100FF00074003000AA84953FA2452A8926853122B3
:1010000001ED8317C40013F7072069FFF19B93E7F5
:1010100027002316F400C9B797070000938747D924
:101020009CD48357C40008C008C893E70708231658
:10103000F400A2475CC8B24791CF8315E40026852F
:10104000EF00B01B01C98357C400F19B93E7170061
:101050002316F4008357C4003369F90023162401D2
:1010600051B7DDC183A7C5FF411122C406C626C200
:101070001384C5FF63D307003E94AA84EF00D01EFB
:10108000938701829C4381EF2322040023A0818265
:101090002244B2402685924441016F00101D637EB8
:1010A000F40014403307D4006396E7009843DC4310
:1010B000369718C05CC0D9BFBA87D84319C3E37D3F
:1010C000E4FE94433386D700631F86001040B29637
:1010D00094C33386D700E31DC7FA10435843B29632
:1010E00094C3D8C375B76375C400B1479CC04DB7EE
:1010F0001040B306C4006316D70014435843B29699
:1011000014C058C0C0C369B78280011126CA938435
:101110003500F19806CE22CC4AC84EC6A104B1478C
:1011200063F3F404B14463E2B4042A89EF00D013FA
:101130009387018298433A8439E0938741829C43A4
:1011400091E781454A85812F23A2A182A6854A8500
:101150009927FD5963193507B1472320F9004A85BE
:10116000EF00B01029A0E3D004FCB1471CC1014539
:10117000F2406244D2444249B249056182801C4037
:10118000858F63CF0702AD4663F6F6001CC03E9420
:1011900004C031A05C406313870223A0F1824A851A
:1011A000EF00B00C1305B4009307440061993307B6
:1011B000F5405DDF3A94898F1CC05DBF5CC3C5B745
:1011C0002287404095BF130435007198E30285FCE7
:1011D000B305A4404A85C125E31C35FBB5BF1C46B9
:1011E000FD171CC663DA0700184E63C5E700A94760
:1011F0006394F5006FF02FFE1C422E8513871700B5
:1012000018C22380B7008280011122CC26CA4AC8A6
:101210004EC652C406CE2A89AE893284B304D600A3
:101220007D5A63149400014509A8834504004E8645
:101230004A8575370504E31645FFF2406244D244FF
:101240004249B249224A05618280357122CD26CBBE
:101250004AC94EC706CF52C556C35AC1DEDEE2DCCC
:10126000E6DAAA89AE843289368401C51C4D91E341
:101270007136971700009387278C639BF40C83A427
:10128000490083D7C400A18BF5C79C48E5C79307E5
:101290000002A304F1029307000302D22305F10226
:1012A00022C6930B5002971A0000938AEA8C054CD1
:1012B000294B4A848347040099C36390770FB30C8A
:1012C0002441638D0C00E6864A86A6854E852D3F17
:1012D000FD576306F51E9256E69636D28347040004
:1012E000638F071CFD571309140002C802CE3ECAC3
:1012F00002CCA309010482D4834509001546568512
:10130000B92713041900C24759E913F7070109C7A0
:1013100013070002A309E10413F7870009C71307A5
:10132000B002A309E104834609001307A002638009
:10133000E608F2474A8481462546034704009305A0
:101340001400130707FD6379E60AB5CA3ECE85A8E7
:1013500097170000938747806395F40083A4890062
:101360000DB7970700009387277BE39CF4F083A4D5
:10137000C90001BFA6854E85EFF0EFF109D97D5573
:10138000FA406A44DA444A49BA492A4A9A4A0A4B14
:10139000F65B665CD65C0D618280050421BF330577
:1013A00055413315AC00C98F3EC82289B1B73247C9
:1013B00093064700184336C6634907023ACE0347EF
:1013C00004009307E002631FF70403471400930728
:1013D000A002631BF702B2470904138747009C432E
:1013E0003AC663C107023ECA35A83307E04093E717
:1013F00027003ACE3EC8E1B7B387670385462E84FF
:10140000BA9725BFFD57C5B7050402CA8146814773
:1014100025460347040093051400130707FD637670
:10142000E606F1F2834504000D461705000013059A
:101430002575312D11CD97070000938767741D8D99
:1014400093070004B397A700424505045D8D2AC8A1
:10145000834504001946170500001305A5721309FA
:1014600014002304B102E5233DC197F7FFFF9387E2
:1014700067B995E74247B2471377071009CF91073D
:101480003EC69257D2973ED22DB5B38767038546A5
:101490002E84BA97BDBF9D07E19BA107D5B7780001
:1014A00097060000938686D626860C084E85970000
:1014B0000000E7000000FD572A8AE314F5FC83D7FB
:1014C000C40093F70704E39C07EA125555BD780062
:1014D00097060000938686D326860C084E85012A3F
:1014E000D9BF797156CA9C49BA8A984522D426D266
:1014F0004ECE52CC06D64AD05AC85EC6AA892E8491
:10150000B284368A63D3E700BA879CC003473404A9
:1015100019C385079CC01C4093F7070281C79C40F4
:1015200089079CC00329040013796900631A090024
:10153000130B9401FD5B5C449840998F634CF90454
:101540001C408346340493F70702B336D000A5EB62
:1015500013063404D2854E85829AFD576303F50441
:101560001C4011469840998B544481446397C700AE
:10157000B384E64063D3040081441C441848635498
:10158000F700998FBE94014969047D5B6398240537
:10159000014509A885465A86D2854E85829A631EE2
:1015A00075017D55B250225492540259F249624A53
:1015B000D24A424BB24B456182800509ADBF330729
:1015C000D40013060003A301C70403475404938700
:1015D0001600A2978906A381E7049DBF854622864F
:1015E000D2854E85829AE30E65FB050945B7797170
:1015F00022D426D24AD04ECE06D652CC56CA5AC88B
:10160000B68983C68501930790063289AA842E8401
:1016100013863504638DF60263E2D70693078005CF
:101620006387F61863EDD7006380062293073004C2
:10163000638EF60A930A24042301D404C9A09307F5
:1016400030066385F60A93074006E395F6FE1C40D4
:10165000084393F6070893054500C5C61C410CC313
:1016600063D807001307D002B307F040A301E404D6
:10167000970600009386865129476DA893070007B7
:101680006383F61663E5D7029307E006638AF618CC
:101690009307F006E390F6FA0C401C4313F8050894
:1016A000138547006307080608C39C438DA893076A
:1016B0005007E383F6FE93078007638AF6129307C9
:1016C0003007E399F6F61C43D041814593864700E5
:1016D00014C383AA070056859D2E01C533055541C5
:1016E00048C05C401CC8A301040471A81C43930AB1
:1016F0002404938647009C4314C32301F4048547C4
:10170000D5B793F607041C410CC3B9DAC207C187E9
:1017100081BF93F5050408C3C9D983D70700130710
:10172000F0066387E60E9706000093862646294753
:10173000A30104044C400CC463C5050008406D9926
:1017400008C099E3B28A91CDB28AB3F5E702FD1AD7
:10175000B69583C505002380BA00B3D5E70263FFC1
:10176000E70AA147631EF7001C40858B91CB5840C8
:101770001C4863C7E70093070003A38FFAFEFD1A16
:101780003306564110C84E87CA867000A28526854A
:10179000893B7D5A631E450B7D55B25022549254AD
:1017A0000259F249624AD24A424B45618280A38281
:1017B000D504970600009386663D0C40084313F855
:1017C00005081C411105630D080208C313F7150035
:1017D00001C793E505020CC04147B9FB0C4093F5E6
:1017E000F5FD0CC0B1B79C4193E707029CC193077C
:1017F0008007A302F404970600009386663A75BF3B
:1018000013F8050408C3E30308FCC207C1837DBFC6
:101810009706000093868637214719BFAE8735B7F4
:1018200094411C43CC4913F806081385470063060E
:10183000080008C39C438CC301A808C393F60604A0
:101840009C43F5DA2390B70023280400B28A25BF11
:1018500014485686CA8526858299E30F45F31C40B5
:10186000898B8DE7B2474844E359F5F23E8535B799
:1018700085465686CA8526858299E30F65F1050A55
:101880005C443247998FE345FAFEE9BF014A930A67
:1018900094017D5BF5B7411122C42A842E8523A4CF
:1018A000018206C6EFE09FFEFD576317F5009387A0
:1018B00081829C4391C31CC0B2402244410182807A
:1018C000411122C42E848395E50006C64522634952
:1018D00005007C48AA977CC8B2402244410182801E
:1018E0008357C4007D777D17F98F2316F400EDB779
:1018F00083D7C500011122CC26CA4AC84EC606CEDF
:1019000093F70710AA842E843289B68991C78395EC
:10191000E5008946014631228357C4007D777D1753
:10192000F98F2316F4008315E4006244F240CE865A
:101930004A86B24942492685D24405613DA84111F3
:1019400022C42E848395E50006C6E128FD5703577F
:10195000C400631BF500FD77FD17F98F2316F40013
:10196000B2402244410182808567D98F2316F4005A
:1019700068C8FDB78395E50005A8411122C42A84F3
:101980002E85B285368623A4018206C6EFE09FEC41
:10199000FD576317F500938781829C4391C31CC058
:1019A000B240224441018280411122C42A842E8502
:1019B00023A4018206C6CD20FD576317F500938747
:1019C00081829C4391C31CC0B24022444101828069
:1019D000411122C42A842E85B28523A4018206C621
:1019E000D120FD576317F500938781829C4391C3F3
:1019F0001CC0B240224441018280411122C42A8489
:101A00002E8523A4018206C66520FD576317F500C5
:101A1000938781829C4391C31CC0B2402244410100
:101A20008280411122C42A842E85B285368623A461
:101A3000018206C66120FD576317F50093878182F6
:101A40009C4391C31CC0B24022444101828093F563
:101A5000F50F2A966314C50001458280834705006F
:101A6000E38DB7FE0505FDB782808280411122C457
:101A70002A842E85B285368623A4018206C6A92033
:101A8000FD576317F500938781829C4391C31CC067
:101A9000B2402244410182809307800523A4F18251
:101AA0007D5582809307800523A4F1827D55828035
:101AB0009307800523A4F182014582809307800566
:101AC00023A4F1827D5582809307800523A4F182AF
:101AD0007D55828077656C636F6D6520746F2057CC
:101AE00043480D00436F756E7465723A25640D0AA4
:101AF0000000000053797374656D436C6B3A256484
:101B00000D0A00004368697049443A253038780D61
:101B10000A000000000000000000000000000000BB
:101B200000000000000000000000000000000000B5
:101B300000000000000000000000000000000000A5
:101B40000000000000000000000000000000000095
:101B50000000000000000000000000000000000085
:101B60000000000000000000000000000000000075
:101B700000000000232D302B20000000686C4C007A
:101B800065666745464700003031323334353637B5
:101B90003839414243444546000000003031323379
:101BA0003435363738396162636465660000000099
:101BB00000000000000000000102030406070809FD
:101BC00000000000010203040102030406070809E3
:101BD00000000000341B0000541B0000141B000018
:101BE00000000000000000000000000000000000F5
:101BF00000000000000000000000000000000000E5
:101C000000000000000000000000000000000000D4
:101C100000000000000000000000000000000000C4
:101C200000000000000000000000000000000000B4
:101C300000A24A0402040608AC0000202000002094
:081C400020000020000000005C
:00000001FF
